:100000000C94B6000C945C040C9489040C94DE00EF
:100010000C94DE000C94DE000C94DE000C94DE00E8
:100020000C94DE000C94DE000C94DE000C94DE00D8
:100030000C94DE000C94DE000C94DE000C94DE00C8
:100040000C94B6040C94DE000C94D9050C941C0698
:100050000C94DE000C94DE000C94DE000C94DE00A8
:100060000C94DE000C94DE006E616E00696E66001A
:1000700000407A10F35A00A0724E18090010A5D45F
:10008000E80000E87648170000E40B54020000CABC
:100090009A3B000000E1F505000080969800000002
:1000A00040420F000000A086010000001027000061
:1000B0000000E803000000006400000000000A00E7
:1000C000000000000100000000002C76D888DC67EA
:1000D0004F0823DFC1DFAE59E1B1B796E5E3E45342
:1000E000C63AE651997696E8E6C28426EB898C9B5F
:1000F00062ED407C6FFCEFBC9C9F40F2BAA56FA5FF
:10010000F490055A2AF75C936B6CF9676DC11BFC80
:10011000E0E40D47FEF520E6B500D0ED902E03009B
:10012000943577050080841E080000204E0A0000E8
:1001300000C80C333333330F986E12831141EF8DA7
:100140002114893BE65516CFFEE6DB18D1844B38E7
:100150001BF77C1D901DA4BBE424203284725E2218
:100160008100C9F124ECA1E53D27570611241FBEEB
:10017000CFEFD8E0DEBFCDBF11E0A0E0B1E0EEE60A
:10018000F1E102C005900D92A031B107D9F721E04D
:10019000A0E1B1E001C01D92A73CB207E1F710E079
:1001A000C6EBD0E004C02197FE010E942B07C53B9F
:1001B000D107C9F70E94BB060C94B5080C94000047
:1001C000A3E1B0E0E6EEF0E00C94E0066C014B0138
:1001D0002A01FC0117821682838181FF43C3AE018D
:1001E0004F5F5F4F3A01F6019381F40193FD8591D2
:1001F00093FF81914F01882309F430C3853239F48C
:1002000093FD859193FF81914F01853239F4B601B9
:1002100090E00E941F0852012501E5CF10E0F12C6B
:1002200020E02032A0F48B3269F030F4803259F0B3
:10023000833269F420612CC08D3239F0803339F477
:10024000216026C02260246023C0286021C027FDD1
:1002500027C030ED380F3A3078F426FF06C0FAE0B8
:100260001F9F300D1124132F13C04AE0F49E300D50
:100270001124F32E20620CC08E3221F426FDEEC232
:10028000206406C08C3611F4206802C0883641F420
:10029000F40193FD859193FF81914F018111C1CFAD
:1002A0009BEB980F933018F42061805E06C09BE9A9
:1002B000980F933008F071C12F7E26FF16E02F7340
:1002C000322E853619F42064322E08C0863621F489
:1002D000F22FF0683F2E02C01111115037FE07C0F7
:1002E0001C3350F4EE24E394E10E27E00BC01830E9
:1002F00038F027E017E005C027E04CE3E42E02C009
:10030000212FE12C520144E0A40EB11CF2016081C6
:100310007181828193810E2DA3010E9431072C01EE
:10032000098100FF02C003FF07C031FC08C032FE94
:1003300009C030E2232E07C02DE2222E04C09BE22A
:10034000292E01C0212C802F8C7019F0211068C239
:10035000A8C237FE0FC0E40C04FF04C08A818133B9
:1003600009F4EA941E1474F5F8E0FE1578F588E0B7
:10037000E82E2CC036FC2AC0812F90E0841595050C
:100380009CF02CEF42162FEF520674F0432D40687C
:10039000342E0AC0E2E0F0E0EC0FFD1FE10FF11D8A
:1003A0008081803319F411501111F4CF37FE0EC043
:1003B000EE24E394E10E812F90E0481659062CF4C8
:1003C000141904C0EE24E39401C010E037FE06C007
:1003D0001414150434F4C201019605C085E090E0C0
:1003E00002C081E090E021100196112331F0212F0D
:1003F00030E02F5F3F4F820F931F2F2D30E0821789
:10040000930714F4F81A01C0F12C832D897049F474
:10041000FF2039F0B60180E290E00E941F08FA94B4
:10042000F7CF222029F0B601822D90E00E941F080C
:1004300033FC09C0FF2039F0B60180E390E00E9450
:100440001F08FA94F7CF37FE5AC0942D852D57FE1A
:1004500002C090E080E0292E382E20E030E0A2019A
:100460004E1951095D874C87A201421953095F87D4
:100470004E87612F70E044275527461B570B598B39
:10048000488B5FEF2516350649F4B6018EE290E001
:100490002A8B3B8B0E941F083B892A8942145304F4
:1004A0006CF04C855D854215530544F4EE85FF855F
:1004B000E20FF31FE60DF71D818101C080E351E0DB
:1004C000251A31082F5F3F4F488959892416350670
:1004D0004CF0B60190E02A8B3B8B0E941F082A89C2
:1004E0003B89CFCF2414350439F49A81963318F41C
:1004F000953311F404FF81E3B60190E04BC08A818B
:10050000813309F00F7EB60190E00E941F0811119F
:1005100005C034FC18C085E690E017C0B6018EE235
:1005200090E00E941F0882E0EE24E394E80EF301BD
:10053000E80FF11D8081B60190E00E941F08115064
:100540008E2D91F7E6CF85E490E0B6010E941F085A
:1005500057FC05C04114510439F404FF05C05194FF
:10056000419451088DE201C08BE2B60190E00E94F7
:100570001F0880E39AE0491651042CF08F5F5AE07F
:10058000451A5108F7CFB60190E00E941F08B60146
:10059000C201C0960E941F0857C1833631F08337CD
:1005A00079F0833509F058C021C05201E2E0AE0E67
:1005B000B11CF2018081898301E010E0230114C0A5
:1005C0005201F2E0AF0EB11CF2014080518026FFD3
:1005D00003C0612F70E002C06FEF7FEFC2012A8B72
:1005E0000E9414088C012A892F7715C05201F2E06D
:1005F000AF0EB11CF2014080518026FF03C0612F75
:1006000070E002C06FEF7FEFC2012A8B0E940908E1
:100610008C012A892068322E23FD1AC08F2D90E08C
:1006200008171907A8F4B60180E290E00E941F089D
:10063000FA94F4CFF20137FC859137FE81912F01B6
:10064000B60190E00E941F08F110FA9401501109C0
:100650000115110579F7F8C0843611F0893659F57E
:10066000520127FF09C0F4E0AF0EB11CF201608116
:100670007181828193810AC0F2E0AF0EB11CF20158
:1006800060817181072E000C880B990B2F76322E1A
:1006900097FF09C090958095709561957F4F8F4F1A
:1006A0009F4F2068322E2AE030E0A3010E945708B5
:1006B000E82EE6183FC0022F853721F40F7E2AE08E
:1006C00030E01DC0097F8F3691F018F4883559F05D
:1006D000C5C0803719F0883711F0C0C0006104FF31
:1006E00009C0046007C024FF08C0066006C028E0F7
:1006F00030E005C020E130E002C020E132E05201EC
:1007000007FF09C0F4E0AF0EB11CF20160817181F6
:100710008281938108C0F2E0AF0EB11CF2016081CA
:10072000718180E090E0A3010E945708E82EE6184E
:100730000F77302E36FE0BC0332D3E7FE11650F47E
:1007400034FE0AC032FC08C0332D3E7E05C00E2D9B
:10075000332D03C00E2D01C0012F34FF0CC0FE014C
:10076000EE0DF11D8081803311F4397E08C032FF17
:1007700005C00E5F04C0832F867809F00F5F33FD3C
:1007800013C030FF06C01E2D0F1518F41F0D101BCF
:100790000F2D0F1568F4B60180E290E03B8B0E94AC
:1007A0001F080F5F3B89F5CF0F1510F4F01A01C039
:1007B000F12C34FF12C0B60180E390E03B8B0E9425
:1007C0001F083B8932FF17C031FD03C088E790E066
:1007D00002C088E590E0B6010CC0832F867859F0FE
:1007E00031FF02C08BE201C080E237FD8DE2B6012D
:1007F00090E00E941F08E11638F4B60180E390E013
:100800000E941F081150F7CFEA94F301EE0DF11D7D
:100810008081B60190E00E941F08E110F5CF14C05E
:10082000F4E0FF1558F584E0F81A33FE1EC02110DD
:1008300026C003FF2AC008E610E0F32DF0713F2E1A
:10084000F8018491811124C0FF2009F4E5CCB601A0
:1008500080E290E00E941F08FA94F6CFF6018681AC
:10086000978126C08FEF9FEF23C0B60180E290E012
:100870000E941F08FA94F110F8CFD9CFF12CB601DD
:10088000822D90E00E941F08D4CF0CE610E0D5CF57
:1008900031108052B60190E00E941F080F5F1F4F79
:1008A000CFCF23E02F1510F483E0BECFF12CC1CFC2
:1008B0006396E2E10C94FC061F920F920FB60F9222
:1008C00011242F933F934F935F936F937F938F9355
:1008D0009F93AF93BF93EF93FF93809110019091FB
:1008E0001101892B29F0E0911001F0911101099576
:1008F000FF91EF91BF91AF919F918F917F916F91F8
:100900005F914F913F912F910F900FBE0F901F90CD
:1009100018951F920F920FB60F9211242F933F93A9
:100920004F935F936F937F938F939F93AF93BF93F7
:10093000EF93FF938091120190911301892B29F07D
:10094000E0911201F09113010995FF91EF91BF9190
:10095000AF919F918F917F916F915F914F913F9157
:100960002F910F900FBE0F901F9018951F920F920E
:100970000FB60F9211242F933F938F939F93AF93B2
:10098000BF938091150190911601A0911701B0912C
:1009900018013091140123E0230F2D3720F4019624
:1009A000A11DB11D05C026E8230F0296A11DB11D92
:1009B000209314018093150190931601A0931701C1
:1009C000B09318018091190190911A01A0911B0117
:1009D000B0911C010196A11DB11D80931901909346
:1009E0001A01A0931B01B0931C01BF91AF919F917D
:1009F0008F913F912F910F900FBE0F901F901895E0
:100A0000789484B5826084BD84B5816084BD85B5E9
:100A1000826085BD85B5816085BDEEE6F0E08081B0
:100A200081608083E1E8F0E01082808182608083D1
:100A3000808181608083E0E8F0E080818160808354
:100A4000E1EBF0E0808184608083E0EBF0E0808186
:100A500081608083EAE7F0E0808184608083808128
:100A600082608083808181608083808180688083D0
:100A70001092C1000895FC0124853585F901E05CE0
:100A8000FF4F80819181329620813181805C9F4F20
:100A9000821B930B60E470E00E94CC060895DC0199
:100AA0001C96ED91FC911D97DF01A05CBF4F2D912D
:100AB0003C91119712968D919C91119728173907A7
:100AC00039F08D919C91E80FF91F808190E0089595
:100AD0008FEF9FEF0895FC01A485B585FD01E05CD3
:100AE000FF4F20813181329680819181281739070B
:100AF00079F080819181A80FB91F8C91208131817B
:100B00002F5F3F4F2F7333273183208390E0089569
:100B10008FEF9FEF0895FC0181A1882329F0A4891C
:100B2000B5898C9186FFFBCF11A208950F931F9377
:100B3000CF93DF93FC01A685B7858D01005C1F4F25
:100B4000E8018881998101968F739927AD014E5BE9
:100B50005F4FEA012881398182179307D1F3E801B9
:100B600028813981A20FB31F6C93A685B785A05C3D
:100B7000BF4F11969C938E93A689B7892C9181E0E3
:100B800090E0078C02C0880F991F0A94E2F7822B2D
:100B90008C9381E081A30488F589E02D80818064B5
:100BA000808381E090E0DF91CF911F910F910895B4
:100BB00008951F920F920FB60F9211242F934F9307
:100BC0005F938F939F93EF93FF938091C00082FD7B
:100BD0001CC02091C6008091C3019091C401019670
:100BE0008F7399274091C5015091C60184179507CD
:100BF00071F0E091C301F091C401ED57FE4F2083E5
:100C00009093C4018093C30102C08091C600FF91FC
:100C1000EF919F918F915F914F912F910F900FBE08
:100C20000F901F9018958DE191E00E943B05892B54
:100C300011F00C94D80508951F920F920FB60F92E1
:100C400011242F933F938F939F93EF93FF932091C2
:100C50007F0130918001809181019091820128175C
:100C6000390731F48091C1008F7D8093C10014C099
:100C7000E0918101F0918201E15CFE4F2081809141
:100C800081019091820101968F739927909382013F
:100C9000809381012093C600FF91EF919F918F91E6
:100CA0003F912F910F900FBE0F901F901895EDE17F
:100CB000F1E01382128288EE93E0A0E0B0E084833A
:100CC0009583A683B78384E091E09183808383E852
:100CD00091E0958784878FE391E09787868785ECFD
:100CE00090E0918B808B84EC90E0938B828B80ECF6
:100CF00090E0958B848B81EC90E0978B868B82ECD7
:100D000090E0918F808F86EC90E0938F828F84E0CB
:100D1000848F83E0858F87E0868F85E0878F81E0F1
:100D200080A30895CF92DF92EF92FF920F931F93CB
:100D3000CF93DF936C01EB017B01E40EF51E00E025
:100D400010E0CE15DF0561F06991D601ED91FC91BF
:100D50000190F081E02DC6010995080F191FF1CF10
:100D6000C801DF91CF911F910F91FF90EF90DF901D
:100D7000CF90089508950E9400050E94BA060E942F
:100D8000CA06C3E1D6E00E94CB062097E1F30E9499
:100D90001306F9CF0895089597FB072E16F40094D3
:100DA00007D077FD09D00E94170707FC05D03EF455
:100DB000909581959F4F0895709561957F4F089507
:100DC0002F923F924F925F926F927F928F929F925B
:100DD000AF92BF92CF92DF92EF92FF920F931F9349
:100DE000CF93DF93CDB7DEB7CA1BDB0B0FB6F894FA
:100DF000DEBF0FBECDBF09942A88398848885F843A
:100E00006E847D848C849B84AA84B984C884DF80AA
:100E1000EE80FD800C811B81AA81B981CE0FD11D8E
:100E20000FB6F894DEBF0FBECDBFED010895AA1B2B
:100E3000BB1B51E107C0AA1FBB1FA617B70710F0C5
:100E4000A61BB70B881F991F5A95A9F780959095F7
:100E5000BC01CD010895EE0FFF1F0590F491E02D28
:100E60000994283008F027E03327DA01990F311D63
:100E700087FD916000966105710539F432602E5F3F
:100E80003D9330E32A95E1F708959F3F30F0803895
:100E90007105610509F03C5F3C5F3D93913008F0BE
:100EA0008068911DDF93CF931F930F93FF92EF9272
:100EB000192F987F9695E92F96959695E90FFF271C
:100EC000E653FF4F99273327EE24FF24A701E701BC
:100ED00005900894079428F4360FE71EF81E491F62
:100EE000511D660F771F881F991F0694A1F7059063
:100EF000079428F4E70EF81E491F561FC11D770FEF
:100F0000881F991F661F0694A1F70590079428F47F
:100F1000F80E491F561FC71FD11D880F991F661F46
:100F2000771F0694A1F70590079420F4490F561FE8
:100F3000C71FD81F990F661F771F881F0694A9F730
:100F400084911095177041F0D695C79557954795A0
:100F5000F794E7941A95C1F7E0E7F0E068941590EC
:100F6000159135916591959105907FE27395E11802
:100F7000F10A430B560BC90BD009C0F7E10CF11E67
:100F8000431F561FC91FD01D7EF4703311F48A957C
:100F9000E6CFE894015030F0080F0AF4002702175A
:100FA00008F4202F2395022F7A3328F079E37D93DC
:100FB0002A95E9F710C07D932A9589F606949795AE
:100FC0006795379517951794E118F10A430B560B5F
:100FD000C90BD00998F023957E9173957A3308F068
:100FE00070E37C932013B8F77E9170617D9330F0AD
:100FF000839571E37D9370E32A95E1F71124EF90D7
:10100000FF900F911F91CF91DF91992787FD9095C8
:101010000895FC010590615070400110D8F780954B
:1010200090958E0F9F1F0895FC01615070400190B4
:101030000110D8F7809590958E0F9F1F08950F93FC
:101040001F93CF93DF93FB01238121FD03C08FEF1B
:101050009FEF28C022FF16C0468157812481358129
:101060004217530744F4A081B1819D012F5F3F4F88
:10107000318320838C93268137812F5F3F4F3783C5
:10108000268310C0EB01092F182F0084F185E02D75
:101090000995892BE1F68E819F8101969F838E832E
:1010A000812F902FDF91CF911F910F910895FA0119
:1010B000AA27283051F1203181F1E8946F936E7F97
:1010C0006E5F7F4F8F4F9F4FAF4FB1E03ED0B4E088
:1010D0003CD0670F781F891F9A1FA11D680F791FC9
:1010E0008A1F911DA11D6A0F711D811D911DA11DDA
:1010F00020D009F468943F912AE0269F11243019EA
:10110000305D3193DEF6CF010895462F4770405D84
:101110004193B3E00FD0C9F7F6CF462F4F70405D33
:101120004A3318F0495D31FD4052419302D0A9F78E
:10113000EACFB4E0A6959795879577956795BA9588
:10114000C9F700976105710508959B01AC010A2E4E
:1011500006945795479537952795BA95C9F7620F25
:0E116000731F841F951FA01D0895F894FFCFE4
:10116E0000000000960592063B056B054F058B05AA
:00000001FF
