:100000000C94DE000C9484040C94B1040C9406014E
:100010000C9406010C9406010C9406010C94060144
:100020000C9406010C9406010C9406010C94060134
:100030000C9406010C9406010C9406010C94060124
:100040000C94DE040C9406010C94ED060C9430071D
:100050000C9406010C9406010C9406010C94060104
:100060000C9406010C9406016E616E00696E6600C8
:100070000000000700020100000304060000000069
:100080000000000001020408102040800102040862
:1000900010200102040810200404040404040404D1
:1000A0000202020202020303030303030000000032
:1000B000250028002B0000000000240027002A0053
:1000C00000407A10F35A00A0724E18090010A5D40F
:1000D000E80000E87648170000E40B54020000CA6C
:1000E0009A3B000000E1F5050000809698000000B2
:1000F00040420F000000A086010000001027000011
:100100000000E803000000006400000000000A0096
:10011000000000000100000000002C76D888DC6799
:100120004F0823DFC1DFAE59E1B1B796E5E3E453F1
:10013000C63AE651997696E8E6C28426EB898C9B0E
:1001400062ED407C6FFCEFBC9C9F40F2BAA56FA5AE
:10015000F490055A2AF75C936B6CF9676DC11BFC30
:10016000E0E40D47FEF520E6B500D0ED902E03004B
:10017000943577050080841E080000204E0A000098
:1001800000C80C333333330F986E12831141EF8D57
:100190002114893BE65516CFFEE6DB18D1844B3897
:1001A0001BF77C1D901DA4BBE424203284725E22C8
:1001B0008100C9F124ECA1E53D27F30711241FBEFE
:1001C000CFEFD8E0DEBFCDBF11E0A0E0B1E0E0E6C8
:1001D000F6E102C005900D92A632B107D9F721E0F1
:1001E000A6E2B1E001C01D92A13EB207E1F710E026
:1001F000CEEDD0E004C02197FE010E94A409CD3DC0
:10020000D107C9F70E946E080C942E0B0C940000C5
:10021000A3E1B0E0EEE0F1E00C9459096C014B0170
:100220002A01FC0117821682838181FF43C3AE013C
:100230004F5F5F4F3A01F6019381F40193FD859181
:1002400093FF81914F01882309F430C3853239F43B
:1002500093FD859193FF81914F01853239F4B60169
:1002600090E00E94980A52012501E5CF10E0F12CA0
:1002700020E02032A0F48B3269F030F4803259F063
:10028000833269F420612CC08D3239F0803339F427
:10029000216026C02260246023C0286021C027FD81
:1002A00027C030ED380F3A3078F426FF06C0FAE068
:1002B0001F9F300D1124132F13C04AE0F49E300D00
:1002C0001124F32E20620CC08E3221F426FDEEC2E2
:1002D000206406C08C3611F4206802C0883641F4D0
:1002E000F40193FD859193FF81914F018111C1CF5D
:1002F0009BEB980F933018F42061805E06C09BE959
:10030000980F933008F071C12F7E26FF16E02F73EF
:10031000322E853619F42064322E08C0863621F438
:10032000F22FF0683F2E02C01111115037FE07C0A6
:100330001C3350F4EE24E394E10E27E00BC0183098
:1003400038F027E017E005C027E04CE3E42E02C0B8
:10035000212FE12C520144E0A40EB11CF201608176
:100360007181828193810E2DA3010E94AA092C0123
:10037000098100FF02C003FF07C031FC08C032FE44
:1003800009C030E2232E07C02DE2222E04C09BE2DA
:10039000292E01C0212C802F8C7019F0211068C2E9
:1003A000A8C237FE0FC0E40C04FF04C08A81813369
:1003B00009F4EA941E1474F5F8E0FE1578F588E067
:1003C000E82E2CC036FC2AC0812F90E084159505BC
:1003D0009CF02CEF42162FEF520674F0432D40682C
:1003E000342E0AC0E2E0F0E0EC0FFD1FE10FF11D3A
:1003F0008081803319F411501111F4CF37FE0EC0F3
:10040000EE24E394E10E812F90E0481659062CF477
:10041000141904C0EE24E39401C010E037FE06C0B6
:100420001414150434F4C201019605C085E090E06F
:1004300002C081E090E021100196112331F0212FBC
:1004400030E02F5F3F4F820F931F2F2D30E0821738
:10045000930714F4F81A01C0F12C832D897049F424
:10046000FF2039F0B60180E290E00E94980AFA94E9
:10047000F7CF222029F0B601822D90E00E94980A41
:1004800033FC09C0FF2039F0B60180E390E00E9400
:10049000980AFA94F7CF37FE5AC0942D852D57FE4F
:1004A00002C090E080E0292E382E20E030E0A2014A
:1004B0004E1951095D874C87A201421953095F8784
:1004C0004E87612F70E044275527461B570B598BE9
:1004D000488B5FEF2516350649F4B6018EE290E0B1
:1004E0002A8B3B8B0E94980A3B892A894214530429
:1004F0006CF04C855D854215530544F4EE85FF850F
:10050000E20FF31FE60DF71D818101C080E351E08A
:10051000251A31082F5F3F4F48895989241635061F
:100520004CF0B60190E02A8B3B8B0E94980A2A89F6
:100530003B89CFCF2414350439F49A81963318F4CB
:10054000953311F404FF81E3B60190E04BC08A813A
:10055000813309F00F7EB60190E00E94980A1111D4
:1005600005C034FC18C085E690E017C0B6018EE2E5
:1005700090E00E94980A82E0EE24E394E80EF301F2
:10058000E80FF11D8081B60190E00E94980A115099
:100590008E2D91F7E6CF85E490E0B6010E94980A8F
:1005A00057FC05C04114510439F404FF05C05194AF
:1005B000419451088DE201C08BE2B60190E00E94A7
:1005C000980A80E39AE0491651042CF08F5F5AE0B4
:1005D000451A5108F7CFB60190E00E94980AB6017B
:1005E000C201C0960E94980A57C1833631F0833702
:1005F00079F0833509F058C021C05201E2E0AE0E17
:10060000B11CF2018081898301E010E0230114C054
:100610005201F2E0AF0EB11CF2014080518026FF82
:1006200003C0612F70E002C06FEF7FEFC2012A8B21
:100630000E948D0A8C012A892F7715C05201F2E0A1
:10064000AF0EB11CF2014080518026FF03C0612F24
:1006500070E002C06FEF7FEFC2012A8B0E94820A16
:100660008C012A892068322E23FD1AC08F2D90E03C
:1006700008171907A8F4B60180E290E00E94980AD2
:10068000FA94F4CFF20137FC859137FE81912F0166
:10069000B60190E00E94980AF110FA9401501109F5
:1006A0000115110579F7F8C0843611F0893659F52E
:1006B000520127FF09C0F4E0AF0EB11CF2016081C6
:1006C0007181828193810AC0F2E0AF0EB11CF20108
:1006D00060817181072E000C880B990B2F76322ECA
:1006E00097FF09C090958095709561957F4F8F4FCA
:1006F0009F4F2068322E2AE030E0A3010E94D00AEA
:10070000E82EE6183FC0022F853721F40F7E2AE03D
:1007100030E01DC0097F8F3691F018F4883559F00C
:10072000C5C0803719F0883711F0C0C0006104FFE0
:1007300009C0046007C024FF08C0066006C028E0A6
:1007400030E005C020E130E002C020E132E052019B
:1007500007FF09C0F4E0AF0EB11CF20160817181A6
:100760008281938108C0F2E0AF0EB11CF20160817A
:10077000718180E090E0A3010E94D00AE82EE61883
:100780000F77302E36FE0BC0332D3E7FE11650F42E
:1007900034FE0AC032FC08C0332D3E7E05C00E2D4B
:1007A000332D03C00E2D01C0012F34FF0CC0FE01FC
:1007B000EE0DF11D8081803311F4397E08C032FFC7
:1007C00005C00E5F04C0832F867809F00F5F33FDEC
:1007D00013C030FF06C01E2D0F1518F41F0D101B7F
:1007E0000F2D0F1568F4B60180E290E03B8B0E945C
:1007F000980A0F5F3B89F5CF0F1510F4F01A01C06E
:10080000F12C34FF12C0B60180E390E03B8B0E94D4
:10081000980A3B8932FF17C031FD03C088E790E09A
:1008200002C088E590E0B6010CC0832F867859F0AD
:1008300031FF02C08BE201C080E237FD8DE2B601DC
:1008400090E00E94980AE11638F4B60180E390E047
:100850000E94980A1150F7CFEA94F301EE0DF11DB2
:100860008081B60190E00E94980AE110F5CF14C093
:10087000F4E0FF1558F584E0F81A33FE1EC021108D
:1008800026C003FF2AC008E610E0F32DF0713F2ECA
:10089000F8018491811124C0FF2009F4E5CCB60150
:1008A00080E290E00E94980AFA94F6CFF6018681E1
:1008B000978126C08FEF9FEF23C0B60180E290E0C2
:1008C0000E94980AFA94F110F8CFD9CFF12CB60112
:1008D000822D90E00E94980AD4CF0CE610E0D5CF8C
:1008E00031108052B60190E00E94980A0F5F1F4FAE
:1008F000CFCF23E02F1510F483E0BECFF12CC1CF72
:100900006396E2E10C9475091F920F920FB60F9255
:1009100011242F933F934F935F936F937F938F9304
:100920009F93AF93BF93EF93FF9380912601909194
:100930002701892B29F0E0912601F09127010995E3
:10094000FF91EF91BF91AF919F918F917F916F91A7
:100950005F914F913F912F910F900FBE0F901F907D
:1009600018951F920F920FB60F9211242F933F9359
:100970004F935F936F937F938F939F93AF93BF93A7
:10098000EF93FF938091280190912901892B29F001
:10099000E0912801F09129010995FF91EF91BF9114
:1009A000AF919F918F917F916F915F914F913F9107
:1009B0002F910F900FBE0F901F9018951F920F92BE
:1009C0000FB60F9211242F933F938F939F93AF9362
:1009D000BF9380912B0190912C01A0912D01B0919A
:1009E0002E0130912A0123E0230F2D3720F40196A8
:1009F000A11DB11D05C026E8230F0296A11DB11D42
:100A000020932A0180932B0190932C01A0932D0118
:100A1000B0932E0180912F0190913001A09131016E
:100A2000B09132010196A11DB11D80932F019093C9
:100A30003001A0933101B0933201BF91AF919F91EA
:100A40008F913F912F910F900FBE0F901F9018958F
:100A50002FB7F89460912B0170912C0180912D019A
:100A600090912E012FBF08953FB7F89480912F01E8
:100A700090913001A0913101B091320126B5A89B2F
:100A800005C02F3F19F00196A11DB11D3FBFBA2F20
:100A9000A92F982F8827820F911DA11DB11DBC0180
:100AA000CD0142E0660F771F881F991F4A95D1F745
:100AB0000895CF92DF92EF92FF92CF93DF936B0175
:100AC0007C010E943405EB01C114D104E104F1045E
:100AD00079F00E9434056C1B7D0B683E7340A0F3D7
:100AE00081E0C81AD108E108F108C851DC4FECCF09
:100AF000DF91CF91FF90EF90DF90CF9008957894A1
:100B000084B5826084BD84B5816084BD85B5826012
:100B100085BD85B5816085BDEEE6F0E080818160B0
:100B20008083E1E8F0E010828081826080838081B0
:100B300081608083E0E8F0E0808181608083E1EB88
:100B4000F0E0808184608083E0EBF0E08081816070
:100B50008083EAE7F0E08081846080838081826026
:100B6000808380818160808380818068808310920F
:100B7000C1000895833081F028F4813099F08230EB
:100B8000A1F008958630A9F08730B9F08430D1F40F
:100B9000809180008F7D03C0809180008F7780934B
:100BA0008000089584B58F7702C084B58F7D84BDA1
:100BB00008958091B0008F7703C08091B0008F7D41
:100BC0008093B0000895CF93DF9390E0FC01EC5741
:100BD000FF4F2491FC01E856FF4F8491882361F177
:100BE00090E0880F991FFC01EA54FF4FC591D49102
:100BF000FC01E455FF4FA591B491611109C09FB765
:100C0000F8948881209582238883EC912E230BC051
:100C1000623061F49FB7F8943881822F80958323E6
:100C20008883EC912E2B2C939FBF06C08FB7F8942E
:100C3000E8812E2B28838FBFDF91CF9108951F93DA
:100C4000CF93DF93282F30E0F901E059FF4F8491D3
:100C5000F901EC57FF4FD491F901E856FF4FC491C9
:100C6000CC23C9F0162F81110E94BA05EC2FF0E0B9
:100C7000EE0FFF1FE455FF4FA591B4918FB7F89485
:100C8000111105C09C91ED2FE095E92302C0EC9174
:100C9000ED2BEC938FBFDF91CF911F910895FC0155
:100CA00024853585F901E05CFF4F80819181329682
:100CB00020813181805C9F4F821B930B60E470E048
:100CC0000E9423090895DC011C96ED91FC911D976B
:100CD000DF01A05CBF4F2D913C91119712968D9131
:100CE0009C9111972817390739F08D919C91E80F45
:100CF000F91F808190E008958FEF9FEF0895FC0128
:100D0000A485B585FD01E05CFF4F208131813296DD
:100D1000808191812817390779F080819181A80F0E
:100D2000B91F8C91208131812F5F3F4F2F73332763
:100D30003183208390E008958FEF9FEF0895FC01A9
:100D400081A1882329F0A489B5898C9186FFFBCFE6
:100D500011A208950F931F93CF93DF93FC01A685F3
:100D6000B7858D01005C1F4FE8018881998101964C
:100D70008F739927AD014E5B5F4FEA01288139815E
:100D800082179307D1F3E80128813981A20FB31F9D
:100D90006C93A685B785A05CBF4F11969C938E93EC
:100DA000A689B7892C9181E090E0078C02C0880F5A
:100DB000991F0A94E2F7822B8C9381E081A3048827
:100DC000F589E02D80818064808381E090E0DF916F
:100DD000CF911F910F91089508951F920F920FB612
:100DE0000F9211242F934F935F938F939F93EF93C1
:100DF000FF938091C00082FD1CC02091C6008091AD
:100E0000D9019091DA0101968F7399274091DB0106
:100E10005091DC018417950771F0E091D901F091B0
:100E2000DA01E756FE4F20839093DA018093D901CF
:100E300002C08091C600FF91EF919F918F915F91C9
:100E40004F912F910F900FBE0F901F90189583E335
:100E500091E00E944F06892B11F00C94EC06089546
:100E60001F920F920FB60F9211242F933F938F93DF
:100E70009F93EF93FF93209195013091960180917C
:100E80009701909198012817390731F48091C1009A
:100E90008F7D8093C10014C0E0919701F09198017B
:100EA000EB5AFE4F20818091970190919801019615
:100EB0008F73992790939801809397012093C60090
:100EC000FF91EF919F918F913F912F910F900FBEC6
:100ED0000F901F901895CF92DF92EF92FF920F9391
:100EE0001F93CF93DF93EC016A017B014115514EB3
:100EF0006105710509F1EC89FD8981E090E008A0A8
:100F000002C0880F991F0A94E2F7808360E079E0BD
:100F10008DE390E0A70196010E94370989019A01AB
:100F20000150110921093109369527951795079523
:100F3000980101151041A8F0EC89FD89108260E844
:100F400074E88EE190E0A70196010E943709DA016A
:100F5000C9010197A109B109B695A79597958795FC
:100F60009C01E889F9893083EA89FB89208319A2E9
:100F7000EE89FF89408181E090E09C010C8C02C0E9
:100F8000220F331F0A94E2F7242B2083EE89FF8976
:100F900040819C010D8C02C0220F331F0A94E2F79E
:100FA000242B2083EE89FF8940819C010E8C02C096
:100FB000220F331F0A94E2F7242B2083EE89FF8946
:100FC00020810F8C02C0880F991F0A94E2F7809548
:100FD00082238083DF91CF911F910F91FF90EF903B
:100FE000DF90CF900895E3E3F1E01382128288EE60
:100FF00093E0A0E0B0E084839583A683B78386E086
:1010000091E09183808389E991E09587848785E5E4
:1010100091E09787868785EC90E0918B808B84ECBC
:1010200090E0938B828B80EC90E0958B848B81ECAD
:1010300090E0978B868B82EC90E0918F808F86EC8E
:1010400090E0938F828F84E0848F83E0858F87E0A8
:10105000868F85E0878F81E080A30895CF92DF920D
:10106000EF92FF920F931F93CF93DF936C01EB01ED
:101070007B01E40EF51E00E010E0CE15DF0561F007
:101080006991D601ED91FC910190F081E02DC601AE
:101090000995080F191FF1CFC801DF91CF911F915A
:1010A0000F91FF90EF90DF90CF900895611571053B
:1010B00079F0FB0101900020E9F73197AF01461B61
:1010C000570BDC01ED91FC910280F381E02D099436
:1010D00080E090E008950C94560808950E947F05E2
:1010E0000E946D080E948008C7E2D7E00E94D808DD
:1010F0002097E1F30E942707F9CF0E942805089561
:1011000040E056E960E070E083E391E00E946B0705
:1011100061E087E00E94E30561E087E00E941F062E
:1011200061E085E00E94E30561E086E00E94E3055E
:1011300061E085E00E94E30561E085E00E941F0612
:1011400064EF71E080E090E00E94590561E086E084
:101150000E941F0664EF71E080E090E00E94590554
:1011600061E085E00E941F0664EF71E080E090E09E
:101170000E94590560E085E00E941F0664EF71E05F
:1011800080E090E00E94590560E086E00E941F0622
:1011900064EF71E080E090E00E94590560E085E036
:1011A0000E941F0662E171E083E391E00C946B08FA
:1011B000CF92DF92EF92FF920F931F930E947D08D0
:1011C0000091DD011091DE012091DF013091E001FD
:1011D0006B017C01C01AD10AE20AF30A48EEC41678
:1011E00043E0D406E104F10438F16093DD0170932B
:1011F000DE018093DF019093E00169E171E083E318
:1012000091E00E946B08809100019091010101978B
:1012100049F460E086E00E941F06109201011092DE
:1012200000010AC061E086E00E941F0681E090E0B4
:1012300090930101809300011F910F91FF90EF9017
:10124000DF90CF90089597FB072E16F4009407D0F7
:1012500077FD09D00E94900907FC05D03EF49095D7
:1012600081959F4F0895709561957F4F0895A1E2F4
:101270001A2EAA1BBB1BFD010DC0AA1FBB1FEE1F10
:10128000FF1FA217B307E407F50720F0A21BB30B5B
:10129000E40BF50B661F771F881F991F1A9469F7D7
:1012A00060957095809590959B01AC01BD01CF0133
:1012B00008952F923F924F925F926F927F928F92FA
:1012C0009F92AF92BF92CF92DF92EF92FF920F93D5
:1012D0001F93CF93DF93CDB7DEB7CA1BDB0B0FB6DF
:1012E000F894DEBF0FBECDBF09942A88398848889C
:1012F0005F846E847D848C849B84AA84B984C88432
:10130000DF80EE80FD800C811B81AA81B981CE0F28
:10131000D11D0FB6F894DEBF0FBECDBFED0108950D
:10132000AA1BBB1B51E107C0AA1FBB1FA617B7070B
:1013300010F0A61BB70B881F991F5A95A9F7809527
:101340009095BC01CD010895EE0FFF1F0590F4911B
:10135000E02D0994283008F027E03327DA01990FAF
:10136000311D87FD916000966105710539F4326089
:101370002E5F3D9330E32A95E1F708959F3F30F0CB
:1013800080387105610509F03C5F3C5F3D93913009
:1013900008F08068911DDF93CF931F930F93FF9206
:1013A000EF92192F987F9695E92F96959695E90FCC
:1013B000FF27E65EFE4F99273327EE24FF24A7017F
:1013C000E70105900894079428F4360FE71EF81EED
:1013D000491F511D660F771F881F991F0694A1F79B
:1013E0000590079428F4E70EF81E491F561FC11DEB
:1013F000770F881F991F661F0694A1F70590079421
:1014000028F4F80E491F561FC71FD11D880F991FBA
:10141000661F771F0694A1F70590079420F4490FE3
:10142000561FC71FD81F990F661F771F881F069466
:10143000A9F784911095177041F0D695C7955795E7
:101440004795F794E7941A95C1F7E0ECF0E06894BB
:101450001590159135916591959105907FE2739561
:10146000E118F10A430B560BC90BD009C0F7E10C88
:10147000F11E431F561FC91FD01D7EF4703311F497
:101480008A95E6CFE894015030F0080F0AF400275F
:10149000021708F4202F2395022F7A3328F079E3DE
:1014A0007D932A95E9F710C07D932A9589F60694D5
:1014B00097956795379517951794E118F10A430B9F
:1014C000560BC90BD00998F023957E9173957A330A
:1014D00008F070E37C932013B8F77E9170617D93E0
:1014E00030F0839571E37D9370E32A95E1F7112441
:1014F000EF90FF900F911F91CF91DF91992787FD7A
:1015000090950895FC010590615070400110D8F746
:10151000809590958E0F9F1F0895FC01615070403B
:1015200001900110D8F7809590958E0F9F1F089518
:101530000F931F93CF93DF93FB01238121FD03C002
:101540008FEF9FEF28C022FF16C04681578124816C
:1015500035814217530744F4A081B1819D012F5F6B
:101560003F4F318320838C93268137812F5F3F4FFC
:101570003783268310C0EB01092F182F0084F185D3
:10158000E02D0995892BE1F68E819F8101969F833D
:101590008E83812F902FDF91CF911F910F9108950E
:1015A000FA01AA27283051F1203181F1E8946F9394
:1015B0006E7F6E5F7F4F8F4F9F4FAF4FB1E03ED03A
:1015C000B4E03CD0670F781F891F9A1FA11D680FD8
:1015D000791F8A1F911DA11D6A0F711D811D911D0B
:1015E000A11D20D009F468943F912AE0269F112480
:1015F0003019305D3193DEF6CF010895462F4770E4
:10160000405D4193B3E00FD0C9F7F6CF462F4F703E
:10161000405D4A3318F0495D31FD4052419302D09C
:10162000A9F7EACFB4E0A695979587957795679542
:10163000BA95C9F700976105710508959B01AC0142
:101640000A2E06945795479537952795BA95C9F769
:10165000620F731F841F951FA01D0895F894FFCF7C
:10166000010000000000AA062E084F067F06630650
:101670009F0648656C6C6F0A0048656C6C6F206152
:061680006761696E0A00BB
:00000001FF
